:100000000C9494000C94B5000C94B5000C94B500BD
:100010000C94B5000C94B5000C94B5000C94B5008C
:100020000C94B5000C94B5000C94B5000C94B5007C
:100030000C94B5000C94B5000C94B5000C94B5006C
:100040000C94B5000C94B5000C94B5000C94B5005C
:100050000C94B5000C94B5000C94B5000C94B5004C
:100060000C94B5000C94B5000C94B5000C94B5003C
:100070000C94B5000C94B5000C94B5000C94B5002C
:100080000C94B5000C94B5000C94B5000C94B5001C
:100090000C94B5000C94B5000C94B5000C94B5000C
:1000A0000C94B5000C94B5000C94B5000C94B500FC
:1000B0000C94B5000C94B5000C94B5000C94B500EC
:1000C0000C94B5000C94B5000C94B5000C94B500DC
:1000D0000C94B5000C94B5000C94B5000C94B500CC
:1000E0000C94B5000C9420030C94D6020C94B2022C
:1000F0000C94EC020C948C020C942F030C94890247
:100100000C940D030C9418030C949A020C94E102C5
:100110000C9402030C941C030C94CA020C94A602C7
:100120000C94BE020C94F70211241FBECFEFD1E253
:10013000DEBFCDBF00E00CBF12E0A0E0B2E0E4E61D
:10014000FDE000E00BBF02C007900D92AC30B1079C
:10015000D9F722E0ACE0B2E001C01D92A933B207AA
:10016000E1F70E94C5030C949F060C9400001092C6
:10017000C50087E68093C40088E18093C10086E0D3
:100180008093C20008958091C00087FFFCCF8091CA
:10019000C60008959091C00095FFFCCF8093C600E3
:1001A0000895CF93DF93EC018991811103C0DF9112
:1001B000CF9108950E94CA00F7CF0F931F93CF935A
:1001C000DF93CDB7DEB764970FB6F894DEBF0FBEEE
:1001D000CDBF9F938F9388E092E09F938F938E0182
:1001E0000F5F1F4F1F930F930E94D803C8010E94F7
:1001F000D1000F900F900F900F900F900F9064967A
:100200000FB6F894DEBF0FBECDBFDF91CF911F9127
:100210000F910895EF92FF920F931F93CF93DF9367
:100220008C01EB017A0124E232E050E040E070E022
:1002300060E080E00E949903809124029091250261
:1002400020910402309105028217930720F49093C5
:1002500005028093040220911202309113022817A4
:10026000390720F4909313028093120280910402C4
:10027000909105022091120230911302820F931F78
:100280009C01369527953093310220933002F70177
:1002900031832083892F8695F801808380913002F5
:1002A0008883DF91CF911F910F91FF90EF90089578
:1002B000EF92FF920F931F93CF93DF938C01EB018B
:1002C0007A0122E232E050E040E070E060E081E05C
:1002D0000E949903809122029091230220910202B0
:1002E000309103028217930720F4909303028093C6
:1002F000020220911002309111022817390720F4D0
:100300009093110280931002809102029091030257
:100310002091100230911102820F931F9C0136959B
:1003200027953093330220933202F70131832083E3
:10033000892F8695F8018083809132028883DF912E
:10034000CF911F910F91FF90EF900895EF92FF9240
:100350000F931F93CF93DF938C01EB017A0120E27F
:1003600032E050E040E070E060E082E00E949903FB
:10037000809120029091210220910002309101028F
:100380008217930720F4909301028093000220913A
:100390000E0230910F022817390720F490930F02B4
:1003A00080930E02809100029091010220910E0232
:1003B00030910F02820F931F9C0136952795309341
:1003C0002E0220932D02F70131832083892F8695F9
:1003D000F801808380912D028883DF91CF911F9156
:1003E0000F91FF90EF900895EF92FF920F931F935C
:1003F000CF93DF93EC018B017A0124E232E050E0ED
:1004000040E070E060E080E00E94990322E232E088
:1004100050E040E070E060E081E00E94990320E25B
:1004200032E050E040E070E060E082E00E9499033A
:10043000209124023091250280910D02E216F306EC
:1004400020F5816080930D0280910D02209122029F
:100450003091230202171307D0F4826080930D02BB
:1004600080910D022091200230912102C217D30702
:1004700080F4846080930D0280910D02DF91CF9112
:100480001F910F91FF90EF9008958E7FDBCF8D7FAE
:10049000E5CF8B7FEFCF813051F0843051F0823047
:1004A00051F0873051F0853051F085E5089582E5AF
:1004B00008958CE4089589E408958BE2089584E515
:1004C000089550E040E070E060E090E080E00E943D
:1004D0000A0150E040E070E060E090E080E00E94BF
:1004E000580150E040E070E060E090E080E00C9463
:1004F000A601809107020E94490380930602813180
:10050000C0F4E82FF0E08827EF55F94F8F4F0C9497
:10051000D00310920702089530E020E04AE252E052
:1005200070E060E080E00E94990380912A0280934D
:100530000702089530E020E050E040E06BE272E016
:1005400080E00E94990380912B02F1CF30E020E0FF
:1005500048E252E070E060E081E00E9499038091FF
:100560002802E5CF30E020E050E040E069E272E0B0
:1005700081E00E94990380912902D9CF30E020E0E8
:1005800046E252E070E060E082E00E9499038091D0
:100590002602CDCF30E020E050E040E067E272E09C
:1005A00082E00E94990380912702C1CF48E152E086
:1005B0006EE172E090E080E00E940A0180911E02EC
:1005C000B6CF48E152E070E060E08FE192E00E9437
:1005D0000A0180911F02ABCF46E152E06CE172E06C
:1005E00090E080E00E94580180911C02A0CF46E17B
:1005F00052E070E060E08DE192E00E94580180914D
:100600001D0295CF44E152E06AE172E090E080E0A3
:100610000E94A60180911A028ACF44E152E070E064
:1006200060E08BE192E00E94A60180911B027FCFE7
:100630000E94610281E47BCF0E9461028FE477CF48
:1006400040911802509119026091160270911702A0
:1006500080911402909115020E94F40168CF40919C
:100660001802509119026091160270911702809140
:100670001402909115020E94F40180930C020E94D2
:100680004B0255CF0C94610288E084B980E48CBDA4
:1006900008958EBD0DB407FEFDCF8EB50895CF939E
:1006A000DF93EC018991811103C0DF91CF9108950F
:1006B0000E944903F7CF0F931F93CF93DF93CDB7DA
:1006C000DEB7C456D1090FB6F894DEBF0FBECDBF5A
:1006D0009F938F9388E092E09F938F938E010F5F9B
:1006E0001F4F1F930F930E94D803C8010E944F030E
:1006F0008EB50F900F900F900F900F900F90CC59D8
:10070000DF4F0FB6F894DEBF0FBECDBFDF91CF91A4
:100710001F910F910895EAE7F0E080818660808361
:10072000ACE7B0E08C9180648C938081806880839A
:10073000089590917C00907E90937C0090917C0035
:10074000892B80937C0080917A00806480937A006A
:1007500080917A0084FFFCCF80917A008061809341
:100760007A008091780080932F0290917900909385
:100770002C02FA01808390912C02FB0190838091DE
:100780002F02F9019183808308950E948B030E94B8
:1007900044030E94B7008FEF81B90E947902FDCF18
:1007A000EE0FFF1F881F8BBF0790F691E02D199465
:1007B0000F931F93CF93DF93CDB7DEB72E970FB66E
:1007C000F894DEBF0FBECDBF0E891F8986E08C83F3
:1007D0001A8309838FEF9FE79E838D83AE01465E68
:1007E0005F4F688D798DCE0101960E9408042F819C
:1007F0003885020F131FF80110822E960FB6F89459
:10080000DEBF0FBECDBFDF91CF911F910F91089535
:100810002F923F924F925F926F927F928F929F9210
:10082000AF92BF92CF92DF92EF92FF920F931F93FE
:10083000CF93DF9300D000D000D00F920F92CDB7AE
:10084000DEB77C013B018A01FC011782168283819D
:1008500081FFCEC19AE0292ECE0101965C01F701FD
:100860009381F30193FD859193FF81913F0188234B
:1008700009F446C1853239F493FD859193FF819146
:100880003F01853229F4B70190E00E941106E7CFBD
:10089000912C412C512CFFE1F51538F08B3209F1E8
:1008A00088F4803201F1833221F157FC3AC020ED07
:1008B000280F2A3040F556FE1FC0929C200D1124AF
:1008C000922E06C08D3291F0803379F7689450F8FB
:1008D000F30193FD859193FF81913F018111DBCF5E
:1008E00020C0689451F8689452F8F2CF689453F895
:1008F000EFCF689454F8ECCF429C200D1124422E87
:10090000689455F8E5CF8E3229F456FCF9C0689406
:1009100056F8DECF8C3619F4689457F8D9CF88365C
:10092000B9F2982F9F7D95549330C0F08336A1F192
:100930008337C1F1833509F05BC0F801C190D190D4
:100940008F01692D70E056FC02C06FEF7FEFC6018A
:100950000E94FB054C01689457F80AC00C5F1F4FBA
:100960002FE3298388248394912C6501E89457F818
:1009700053FC04C04814190409F018F5342C8114F0
:10098000910431F5332009F46ACFB70180E290E099
:100990000E9411063A94F6CFF801808189830E5F98
:1009A0001F4FE0CFF801C190D1908F01692D70E009
:1009B00056FC02C06FEF7FEFC6010E9406064C0195
:1009C000D5CFB70180E290E00E9411064A94D2CFC1
:1009D000F60157FC859157FE81916F01B70190E0B8
:1009E0000E94110631103A94F1E08F1A9108C7CF96
:1009F000843619F0893609F074C0F80157FE6AC0D0
:100A000061917191819191918F01252D2F76D22E37
:100A100097FF09C090958095709561957F4F8F4F96
:100A20009F4F6894D7F82AE030E0A5010E94410664
:100A3000C82ECA188C2C5D2CD6FE0CC0E89450F839
:100A4000C91440F4D4FE05C0D2FC03C0FD2DFE7EC7
:100A50005F2E892C54FEA4C0FE01EC0DF11D808197
:100A6000803309F096C0252D297E522E852D887061
:100A7000382E53FCA4C050FE9EC09C2C841418F445
:100A80004C0C942C981854FEA0C0B70180E390E061
:100A90000E94110652FE09C088E790E051FE02C094
:100AA00088E590E0B7010E941106C91408F499C0C6
:100AB000CA94D12C9FEFC91AD90ACA0CDB1CF601C3
:100AC00082916F01B70190E00E941106AC14BD0441
:100AD000B1F758CF61917191072E000C880B990BDB
:100AE00093CFD52CE894D4F82AE030E08537E1F1B3
:100AF000952D997FD92E8F36A9F1F0F4883551F1D3
:100B0000F701868197812B960FB6F894DEBF0FBE52
:100B1000CDBFDF91CF911F910F91FF90EF90DF90AC
:100B2000CF90BF90AF909F908F907F906F905F908D
:100B30004F903F902F900895803749F0883701F704
:100B4000D4FE02C06894D2F820E130E00DC0689471
:100B5000D4F8F6CF54FE03C0E92FE660DE2E20E184
:100B600032E002C028E030E0F801D7FE0DC061910C
:100B70007191819191918F01A5010E944106C82E2A
:100B8000CA18E894D7F856CF6191719190E080E04F
:100B9000F2CF52FC02C0839469CF8394839466CFD2
:100BA000852D867809F462CFF6CFB70180E290E018
:100BB0000E94110683948414C0F3312C64CF342C2A
:100BC0003818841408F45FCFF8CF852D867809F49F
:100BD0006CCF8BE251FE80E257FC8DE2B70190E0D2
:100BE00062CFB70180E390E00E9411069A945DCF36
:100BF0008FEF9FEF88CFFC0105906150704001108E
:100C0000D8F7809590958E0F9F1F0895FC01615035
:100C1000704001900110D8F7809590958E0F9F1F1E
:100C200008950F931F93CF93DF93182F092FEB0194
:100C30008B8181FD09C01FEF0FEF812F902FDF9176
:100C4000CF911F910F91089582FF14C02E813F8193
:100C50008C819D81281739073CF4E881F981CF0107
:100C600001969983888310838E819F8101969F834B
:100C70008E83E3CFE885F985812F1995892BA1F320
:100C8000DACFFA01AA27283051F1203181F1E89416
:100C90006F936E7F6E5F7F4F8F4F9F4FAF4FB1E06F
:100CA0003ED0B4E03CD0670F781F891F9A1FA11D6A
:100CB000680F791F8A1F911DA11D6A0F711D811D6B
:100CC000911DA11D20D009F468943F912AE0269F30
:100CD00011243019305D3193DEF6CF010895462F8F
:100CE0004770405D4193B3E00FD0C9F7F6CF462F70
:100CF0004F70405D4A3318F0495D31FD40524193D9
:100D000002D0A9F7EACFB4E0A69597958795779595
:100D10006795BA95C9F700976105710508959B011C
:100D2000AC010A2E06945795479537952795BA95A5
:100D3000C9F7620F731F841F951FA01D0895F894B3
:100D4000FFCF89028C029A02A602B202BE02CA0238
:100D5000D602E102EC02F70202030D0318031C03A2
:040D600020032F033A
:0C0D6400FF03FF03FF0330302564000094
:00000001FF
